{
  "contractName": "TransferContract",
  "abi": [
    {
      "inputs": [
        {
          "internalType": "uint256",
          "name": "initPercentage",
          "type": "uint256"
        }
      ],
      "stateMutability": "nonpayable",
      "type": "constructor"
    },
    {
      "anonymous": false,
      "inputs": [
        {
          "indexed": true,
          "internalType": "address",
          "name": "sender",
          "type": "address"
        },
        {
          "indexed": false,
          "internalType": "uint256",
          "name": "v1",
          "type": "uint256"
        },
        {
          "indexed": false,
          "internalType": "uint256",
          "name": "v2",
          "type": "uint256"
        },
        {
          "indexed": false,
          "internalType": "uint256",
          "name": "v3",
          "type": "uint256"
        }
      ],
      "name": "TransferValueEvent",
      "type": "event"
    },
    {
      "inputs": [],
      "name": "contractBalance",
      "outputs": [
        {
          "internalType": "uint256",
          "name": "",
          "type": "uint256"
        }
      ],
      "stateMutability": "view",
      "type": "function"
    },
    {
      "inputs": [],
      "name": "contractCreator",
      "outputs": [
        {
          "internalType": "address",
          "name": "",
          "type": "address"
        }
      ],
      "stateMutability": "view",
      "type": "function"
    },
    {
      "inputs": [
        {
          "internalType": "address",
          "name": "",
          "type": "address"
        },
        {
          "internalType": "address",
          "name": "",
          "type": "address"
        }
      ],
      "name": "list",
      "outputs": [
        {
          "internalType": "uint256",
          "name": "",
          "type": "uint256"
        }
      ],
      "stateMutability": "view",
      "type": "function"
    },
    {
      "inputs": [],
      "name": "percentage",
      "outputs": [
        {
          "internalType": "uint256",
          "name": "",
          "type": "uint256"
        }
      ],
      "stateMutability": "view",
      "type": "function"
    },
    {
      "inputs": [],
      "name": "sellerBalance",
      "outputs": [
        {
          "internalType": "uint256",
          "name": "",
          "type": "uint256"
        }
      ],
      "stateMutability": "view",
      "type": "function"
    },
    {
      "stateMutability": "payable",
      "type": "receive"
    },
    {
      "inputs": [
        {
          "internalType": "address",
          "name": "agentAddress",
          "type": "address"
        }
      ],
      "name": "transferToContract",
      "outputs": [],
      "stateMutability": "payable",
      "type": "function"
    },
    {
      "inputs": [
        {
          "internalType": "address",
          "name": "buyerAddress",
          "type": "address"
        },
        {
          "internalType": "address",
          "name": "agentAddress",
          "type": "address"
        }
      ],
      "name": "getList",
      "outputs": [
        {
          "internalType": "uint256",
          "name": "",
          "type": "uint256"
        }
      ],
      "stateMutability": "view",
      "type": "function"
    },
    {
      "inputs": [],
      "name": "getPercentage",
      "outputs": [
        {
          "internalType": "uint256",
          "name": "",
          "type": "uint256"
        }
      ],
      "stateMutability": "view",
      "type": "function"
    },
    {
      "inputs": [],
      "name": "getContractBalance",
      "outputs": [
        {
          "internalType": "uint256",
          "name": "",
          "type": "uint256"
        }
      ],
      "stateMutability": "view",
      "type": "function"
    },
    {
      "inputs": [],
      "name": "withdrawBalance",
      "outputs": [],
      "stateMutability": "nonpayable",
      "type": "function"
    }
  ],
  "bytecode": "0x608060405234801561000f575f80fd5b5060405162000bf838038062000bf883398181016040528101906100339190610114565b5f8110158015610044575060648111155b610083576040517f08c379a000000000000000000000000000000000000000000000000000000000815260040161007a90610199565b60405180910390fd5b335f806101000a81548173ffffffffffffffffffffffffffffffffffffffff021916908373ffffffffffffffffffffffffffffffffffffffff1602179055505f600281905550806001819055505f600381905550506101b7565b5f80fd5b5f819050919050565b6100f3816100e1565b81146100fd575f80fd5b50565b5f8151905061010e816100ea565b92915050565b5f60208284031215610129576101286100dd565b5b5f61013684828501610100565b91505092915050565b5f82825260208201905092915050565b7f416d6f756e742073686f756c64206265203e3d203020616e64203c3d203130305f82015250565b5f61018360208361013f565b915061018e8261014f565b602082019050919050565b5f6020820190508181035f8301526101b081610177565b9050919050565b610a3380620001c55f395ff3fe608060405260043610610094575f3560e01c8063867a06b311610058578063867a06b3146101865780638b7afe2e146101b0578063a6b58814146101da578063c78ad77f14610216578063ec11a00d14610240576100b2565b80630b2accb2146100b65780631e2f73b1146100e05780633ecbbf391461010a5780635fd8c710146101465780636f9fb98a1461015c576100b2565b366100b2573460035f8282546100aa91906106a7565b925050819055005b5f80fd5b3480156100c1575f80fd5b506100ca61025c565b6040516100d791906106e9565b60405180910390f35b3480156100eb575f80fd5b506100f4610265565b6040516101019190610741565b60405180910390f35b348015610115575f80fd5b50610130600480360381019061012b9190610788565b610288565b60405161013d91906106e9565b60405180910390f35b348015610151575f80fd5b5061015a6102a8565b005b348015610167575f80fd5b506101706103a8565b60405161017d91906106e9565b60405180910390f35b348015610191575f80fd5b5061019a6103b1565b6040516101a791906106e9565b60405180910390f35b3480156101bb575f80fd5b506101c46103b7565b6040516101d191906106e9565b60405180910390f35b3480156101e5575f80fd5b5061020060048036038101906101fb9190610788565b6103bd565b60405161020d91906106e9565b60405180910390f35b348015610221575f80fd5b5061022a61043f565b60405161023791906106e9565b60405180910390f35b61025a600480360381019061025591906107c6565b610445565b005b5f600154905090565b5f8054906101000a900473ffffffffffffffffffffffffffffffffffffffff1681565b6004602052815f5260405f20602052805f5260405f205f91509150505481565b5f8054906101000a900473ffffffffffffffffffffffffffffffffffffffff1673ffffffffffffffffffffffffffffffffffffffff163373ffffffffffffffffffffffffffffffffffffffff1614610335576040517f08c379a000000000000000000000000000000000000000000000000000000000815260040161032c90610871565b60405180910390fd5b5f60035490505f6003819055505f8054906101000a900473ffffffffffffffffffffffffffffffffffffffff1673ffffffffffffffffffffffffffffffffffffffff166108fc8290811502906040515f60405180830381858888f193505050501580156103a4573d5f803e3d5ffd5b5050565b5f600354905090565b60025481565b60035481565b5f60045f8473ffffffffffffffffffffffffffffffffffffffff1673ffffffffffffffffffffffffffffffffffffffff1681526020019081526020015f205f8373ffffffffffffffffffffffffffffffffffffffff1673ffffffffffffffffffffffffffffffffffffffff1681526020019081526020015f2054905092915050565b60015481565b5f3411610487576040517f08c379a000000000000000000000000000000000000000000000000000000000815260040161047e906108d9565b60405180910390fd5b5f60646001543461049891906108f7565b6104a29190610965565b90505f606460015460646104b69190610995565b346104c191906108f7565b6104cb9190610965565b90508160025f8282546104de91906106a7565b925050819055505f8054906101000a900473ffffffffffffffffffffffffffffffffffffffff1673ffffffffffffffffffffffffffffffffffffffff166108fc8390811502906040515f60405180830381858888f19350505050158015610547573d5f803e3d5ffd5b508273ffffffffffffffffffffffffffffffffffffffff166108fc8290811502906040515f60405180830381858888f1935050505015801561058b573d5f803e3d5ffd5b508060045f3373ffffffffffffffffffffffffffffffffffffffff1673ffffffffffffffffffffffffffffffffffffffff1681526020019081526020015f205f8573ffffffffffffffffffffffffffffffffffffffff1673ffffffffffffffffffffffffffffffffffffffff1681526020019081526020015f205f82825461061391906106a7565b925050819055503373ffffffffffffffffffffffffffffffffffffffff167f2ed9bf0c1f2590afd8bb1ce17c2d2e54766225cd32e9202296645eb2762e9b4a348484604051610664939291906109c8565b60405180910390a2505050565b5f819050919050565b7f4e487b71000000000000000000000000000000000000000000000000000000005f52601160045260245ffd5b5f6106b182610671565b91506106bc83610671565b92508282019050808211156106d4576106d361067a565b5b92915050565b6106e381610671565b82525050565b5f6020820190506106fc5f8301846106da565b92915050565b5f73ffffffffffffffffffffffffffffffffffffffff82169050919050565b5f61072b82610702565b9050919050565b61073b81610721565b82525050565b5f6020820190506107545f830184610732565b92915050565b5f80fd5b61076781610721565b8114610771575f80fd5b50565b5f813590506107828161075e565b92915050565b5f806040838503121561079e5761079d61075a565b5b5f6107ab85828601610774565b92505060206107bc85828601610774565b9150509250929050565b5f602082840312156107db576107da61075a565b5b5f6107e884828501610774565b91505092915050565b5f82825260208201905092915050565b7f4f6e6c792074686520636f6e74726163742063726561746f722063616e2077695f8201527f7468647261770000000000000000000000000000000000000000000000000000602082015250565b5f61085b6026836107f1565b915061086682610801565b604082019050919050565b5f6020820190508181035f8301526108888161084f565b9050919050565b7f416d6f756e742073686f756c64206265203e20300000000000000000000000005f82015250565b5f6108c36014836107f1565b91506108ce8261088f565b602082019050919050565b5f6020820190508181035f8301526108f0816108b7565b9050919050565b5f61090182610671565b915061090c83610671565b925082820261091a81610671565b915082820484148315176109315761093061067a565b5b5092915050565b7f4e487b71000000000000000000000000000000000000000000000000000000005f52601260045260245ffd5b5f61096f82610671565b915061097a83610671565b92508261098a57610989610938565b5b828204905092915050565b5f61099f82610671565b91506109aa83610671565b92508282039050818111156109c2576109c161067a565b5b92915050565b5f6060820190506109db5f8301866106da565b6109e860208301856106da565b6109f560408301846106da565b94935050505056fea264697066735822122044ce9ac1337f51ee29fb8f085df08c546e722d7579b6b687ee1b1a0c6ffbdde864736f6c63430008140033",
  "immutableReferences": {},
  "source": "// SPDX-License-Identifier: GPL-3.0\n\npragma solidity >=0.8.2 <0.9.0;\n//pragma solidity >=0.8.2 <0.9.0;\n// pragma solidity ^0.8.19;\n/* \ngeneral idea:\nuser make a transaction with 100 for example, seller can get 90 and agent can get 10, \nif contract create set the percentage is 90%\n*/\ncontract TransferContract {\n    address public contractCreator;\n    uint256 public percentage; //seller set the percentage\n    uint256 public sellerBalance; //seller balance in this contract\n\n    uint256 public contractBalance;\n    // wallet address => balance of this address in this contract\n    struct WalletAddressValue {\n        address walletAddress;\n        uint256 balance;\n    }\n\n    event TransferValueEvent(address indexed sender, uint256 v1, uint256 v2, uint256 v3);\n\n    constructor(uint256 initPercentage) {\n        require(initPercentage >= 0 && initPercentage <=100 , \"Amount should be >= 0 and <= 100\");\n        contractCreator = msg.sender; // contract creator address = seller address\n        sellerBalance = 0; // seller balance in this contract\n        percentage = initPercentage; // the portion of tokens that seller get, value from (0-100)\n        contractBalance = 0;\n    }\n\n     //key is the buyer address, value is map for {key:agent address, value is balance of tokens received}\n    mapping(address => mapping(address => uint256)) public list;\n\n    function transferToContract(address agentAddress) public payable {\n        require(msg.value > 0, \"Amount should be > 0\");\n\n        // token allocations\n        uint256 creatorAmount = (msg.value * percentage) / 100;\n        uint256 agentAmount = (msg.value * (100 - percentage)) / 100;\n        sellerBalance += creatorAmount; // update seller balance\n\n        payable(contractCreator).transfer(creatorAmount); // pay to seller\n        payable(agentAddress).transfer(agentAmount); // pay to agent\n\n        list[msg.sender][agentAddress] += agentAmount; // update balance in list (buyer and agent)\n        emit TransferValueEvent(msg.sender, msg.value, creatorAmount, agentAmount);\n    }\n\n    // get data from list\n    function getList(address buyerAddress, address agentAddress) public view returns(uint256) {\n        return list[buyerAddress][agentAddress];\n    }\n\n    // get percentage from list\n    function getPercentage() public view returns(uint256) {\n        return percentage;\n    }\n\n    // get contract balance\n    function getContractBalance() public view returns(uint256) {\n        return contractBalance;\n    }\n\n    //contract creator can withdraw if there is contract balance\n    function withdrawBalance() public {\n        require(msg.sender == contractCreator, \"Only the contract creator can withdraw\");\n        uint256 balance = contractBalance;\n        contractBalance = 0;\n        payable(contractCreator).transfer(balance);\n    }\n\n    //contract can receive tokens\n    receive() external payable {\n        contractBalance += msg.value;\n    }\n}",
  "sourcePath": "/Users/geng/Desktop/work/polygon/sc-for-kol/truffle/contracts/TransferContract.sol",
  "compiler": {
    "name": "solc",
    "version": "0.8.20+commit.a1b79de6.Emscripten.clang"
  },
  "schemaVersion": "3.4.14",
  "updatedAt": "2023-05-21T15:24:00.426Z",
  "devdoc": {
    "kind": "dev",
    "methods": {},
    "version": 1
  },
  "userdoc": {
    "kind": "user",
    "methods": {},
    "version": 1
  }
}